:020000040800F2
:100000002807002029020008A1050008990500081A
:100010009D050008E3020008610A000800000000D6
:100020000000000000000000000000004907000878
:1000300095030008000000001D0600086108000884
:10004000430200084302000843020008430200087C
:10005000430200084302000843020008430200086C
:10006000430200084302000843020008430200085C
:10007000430200084302000843020008430200084C
:10008000430200084302000843020008430200083C
:10009000430200084302000843020008430200082C
:1000A000430200084302000843020008430200081C
:1000B000430200084302000843020008430200080C
:1000C00043020008430200084302000843020008FC
:1000D000430200084302000843020008CD0800085C
:1000E00043020008430200084302000843020008DC
:1000F00043020008430200084302000843020008CC
:1001000043020008430200084302000843020008BB
:1001100043020008430200084302000843020008AB
:10012000430200084302000843020008430200089B
:10013000430200084302000843020008430200088B
:10014000430200084302000843020008430200087B
:10015000430200084302000843020008430200086B
:10016000430200084302000843020008430200085B
:10017000430200084302000843020008430200084B
:10018000430200084302000800F002F800F03CF8C7
:100190000AA090E8000C82448344AAF10107DA45E2
:1001A00001D100F031F8AFF2090EBAE80F0013F0F8
:1001B000010F18BFFB1A43F001031847D00A0000D3
:1001C000F00A0000103A24BF78C878C1FAD8520764
:1001D00024BF30C830C144BF04680C6070470000C1
:1001E0000023002400250026103A28BF78C1FBD840
:1001F000520728BF30C148BF0B6070471FB500F0E1
:100200003FFD1FBD10B510BD00F031F81146FFF7DE
:10021000F5FF00F085FC00F04FF803B4FFF7F2FFA4
:1002200003BC00F057F80000094880470948004720
:10023000FEE7FEE7FEE7FEE7FEE7FEE7FEE7FEE796
:10024000FEE7FEE704480549054A064B70470000F3
:1002500065080008890100082801002028070020FF
:100260002803002028030020704770477047754618
:1002700000F02CF8AE4605006946534620F0070012
:10028000854618B020B5FFF7DDFFBDE820404FF0F0
:1002900000064FF000074FF000084FF0000B21F070
:1002A0000701AC46ACE8C009ACE8C009ACE8C0093D
:1002B000ACE8C0098D46704710B50446AFF3008026
:1002C0002046BDE81040FFF7A8BF00000048704777
:1002D000C400002001491820ABBEFEE72600020042
:1002E000704700BFFEE7000006480078A52804D14B
:1002F000044890F821005A2801D0002070470120BE
:10030000FCE700006000002021B1026842F0010219
:10031000026003E0026822F00102026070470146B9
:1003200000200A6802F001020AB1012000E000206A
:100330007047000010B500220268134B1A40CC68C9
:100340000B6823434C6923438C692343CC692343C3
:100350000C6A23434C6A23438C6A23434C6B23432C
:100360008C6B23431A430260426922F00702D1E9F1
:100370000B3423431A4342610B6943604B6883602B
:100380008B68C36010BD00003F801CF0024642EA4B
:10039000012070477047F0B50A4600210023002471
:1003A00000BF3DE0012505FA01F3156805EA0304E5
:1003B0009C4234D105684F000326BE40B54305601A
:1003C00015794E00B5400668354305601579012D55
:1003D00002D01579022D16D185684F000326BE4044
:1003E000B543856055794E00B540866835438560D4
:1003F000456801268E40B5434560456896798E4034
:10040000B6B235434560C5684F000326BE40B543CC
:10041000C560D5794E00B540C6683543C560491CF6
:100420001029BFD3F0BDF0B5002300244D07ED0E19
:1004300002FA05F3CE1000F1200555F826504E07BC
:10044000F70E0F26BE40B543CF1000F1200646F848
:100450002750CE1000F1200555F8265045EA030438
:10046000CE1000F1200545F82640F0BD30B503461A
:100470000C461546124AD1799079FFF787FF00B2F2
:1004800000EE100AB8EEC00A83ED000A0C4A517A59
:10049000107AFFF77BFF00B200EE100AB8EEC00A38
:1004A00084ED000A064AD17A507AFFF76FFF00B256
:1004B00000EE100AB8EEC00A85ED000A30BD00005B
:1004C0006000002030B503460C461546184A117FDF
:1004D000D07EFFF75BFF00B200EE100AB8EEC00A54
:1004E000DFED140A80EE201A83ED001A104A917F86
:1004F000507FFFF74BFF00B200EE100AB8EEC00AC3
:10050000DFED0C0A80EE201A84ED001A084A92F8FA
:100510002010907FFFF73AFF00B200EE100AB8EE0D
:10052000C00AF2EE040A80EE201A85ED001A30BDF2
:10053000600000200000C84230B503460C46154656
:10054000124A917B507BFFF721FF00B200EE100AA8
:10055000B8EEC00A83ED000A0C4A117CD07BFFF78D
:1005600015FF00B200EE100AB8EEC00A84ED000AD2
:10057000064A917C107CFFF709FF00B200EE100ADA
:10058000B8EEC00A85ED000A30BD00006000002012
:10059000004870476000002000BFFEE700BFFEE794
:1005A0007047000070B5002100230F22C4781CB3EF
:1005B000174C246804F4E064C4F5E064C4F3072134
:1005C000C1F10404E3B20A4144789C40E1B284786A
:1005D000144021430C07210E0E4C05786155047818
:1005E00004F01F050124AC4005786D11AD0005F144
:1005F000E025C5F8004109E0047804F01F05012456
:10060000AC40054D0678761145F8264070BD0000D7
:100610000CED00E000E400E080E100E07047000045
:1006200029B1064A12680243044B1A6004E0034AE7
:1006300012688243014B1A60704700003038024054
:1006400029B1064A12680243044B1A6004E0034AC7
:1006500012688243014B1A60704700004038024024
:10066000F0B5002100220024022500260223324F8B
:100670003F6807F00C0121B1042905D0082937D1C2
:1006800005E02E4F076036E02D4F076033E02A4F1C
:100690003F1F3F68C7F38056274F3F1F3F6807F053
:1006A0003F036EB1264FB7FBF3F7DFF88CC0ACF118
:1006B000040CDCF800C0CCF3881C07FB0CF40CE045
:1006C0001E4FB7FBF3F7DFF870C0ACF1040CDCF899
:1006D00000C0CCF3881C07FB0CF4174F3F1F3F688A
:1006E000C7F301477F1C7D00B4FBF5F7076002E00C
:1006F000124F076000BF00BF0F4F3F6807F0F001C7
:100700000909104F7A5C0768D74047600A4F3F6875
:1007100007F4E051890A0B4F7A5C4768D74087603D
:10072000054F3F6807F46041490B064F7A5C476804
:10073000D740C760F0BD0000083802400024F40034
:1007400040787D014C000020704700000CB500206F
:10075000019000903448006840F4803032490860CD
:1007600000BF3148006800F4003000900198401C40
:100770000190009818B90198B0F5A04FF1D12A481E
:10078000006800F4003010B10120009001E000206A
:1007900000900098012846D123484030006840F07E
:1007A00080502149403108602048006840F44040B2
:1007B0001E4908601C48083000681B490831086061
:1007C0000846006840F4004008600846006840F4AD
:1007D000A05008601648091F0860081F006840F014
:1007E0008070091F086000BF0F48006800F00070AB
:1007F0000028F9D040F205700E4908600A48083018
:10080000006820F0030008490831086008460068C5
:1008100040F00200086000BF03480830006800F0A4
:100820000C000828F8D10CBD0038024000700040D0
:1008300019544007003C0240042808D14FF0E02141
:10084000096941F004014FF0E022116107E04FF027
:10085000E021096921F004014FF0E02211617047A5
:100860007047000010B51548006840F47000134947
:1008700008601348006840F001001149086000203A
:100880000F49083108600E4800680E4908400C49BD
:1008900008600D48091D0860081F006820F48020CA
:1008A000091F0860002006490C310860FFF74EFF61
:1008B0004FF0006001498039086010BD88ED00E00C
:1008C00000380240FFFFF6FE1030002410B540F261
:1008D0002441084800F027F850B100210648FFF7EE
:1008E00013FD0448001D008801210348FFF70CFD9B
:1008F00010BD0000004800402860024021B18289FC
:1009000042F40052828104E082894DF6FF731A405E
:10091000828170471AB1838A0B43838202E0838A03
:100920008B438382704702460020B1F5007F00D1DF
:1009300000BF13880B400BB1012000E0002070477E
:10094000F0B50346002400260025002040F66A1773
:10095000B94200D100BF1846C1F3421401F01F068E
:10096000012707FA06F5012C01D10C3004E0022C16
:1009700001D1103000E014301AB107682F4307602E
:1009800002E00768AF430760F0BD00002DE9FF47B4
:1009900005460E460024A14600BFA046B08900B11E
:1009A00000BF2C8A24F44054F08804432C82AC8984
:1009B00041F20C608443B08831890843718908434F
:1009C0000443AC81AC8A24F44074B0890443AC8203
:1009D0006846FFF745FE2048854202D01F48854201
:1009E00002D1DDF80C9001E0DDF80890A88900F450
:1009F000004040B109EBC90000EB09103168490023
:100A0000B0FBF1F707E009EBC90000EB0910316812
:100A10008900B0FBF1F76420B7FBF0F00401200976
:100A2000642101FB1078A88900F4004040B1322015
:100A300000EBC800B0FBF1F000F00700044308E051
:100A4000322000EB08106421B0FBF1F000F00F0041
:100A500004432C81BDE8FF870010014000140140D1
:100A600000BFFEE710B504466FF00400FFF7E4FE98
:100A7000E11704EB5171C1F3C701074A1170104629
:100A8000007800EB4001C1EBC0104FF6FF7101EAA6
:100A9000C0000249088010BD5C0000205E000020FC
:100AA00000B58FB001214805FFF7BAFD00BF1A4815
:100AB000FFF735FC0028FAD14FF00060009017488E
:100AC0000190FFF765FD0290002003902220049022
:100AD000002005904FF48060069000200790089059
:100AE0004FF48070099000020A9000200B900320C0
:100AF0000C9000200D900E9069460748FFF71AFCF5
:100B0000012240210548001FFFF704FF0121024890
:100B1000FFF7FAFB0FB000BD286002400448004018
:100B2000A820FFF79FFF00F053F835E0FFF7DCFB4C
:100B300070B11A4A1A491B48FFF798FC1A4A1B4918
:100B40001B48FFF7F9FC1B4A1B491C48FFF7BAFC7E
:100B50001A4890ED000ADFED1A0A20EE200ABDEED9
:100B6000C00A184880ED000A124890ED000ADFED37
:100B7000140A20EE200ABDEEC00A134880ED000AD8
:100B80000D4890ED000ADFED0E0A20EE200ABDEEC2
:100B9000C00A0E4880ED000AC8E700000C000020E3
:100BA000080000200400002018000020140000208D
:100BB0001000002020000020240000201C00002045
:100BC0000000C842400000204400002048000020EF
:100BD00000B587B001210420FFF722FD0121880420
:100BE000FFF72EFD07220B212348FFF71CFC0722ED
:100BF0000A212148FFF717FC4FF4406005900220BE
:100C00008DF818008DF8190000208DF81A000120C9
:100C10008DF81B0005A91848FFF7BDFB4FF4E13024
:100C200001900020ADF80800ADF80A00ADF80C0006
:100C3000ADF810000C20ADF80E0001A90F48FFF729
:100C4000A5FE012240F224410C48FFF779FE27203F
:100C50008DF8000001208DF801008DF802008DF85C
:100C600003006846FFF79EFC01210448FFF746FE9B
:100C7000FFF716FF07B000BD000802400048004023
:100C80004FF04070E1EE100A70470000AC0C000815
:100C90000000002060000000C40100080C0D0008E6
:100CA00060000020C8060000E0010008000000000D
:100CB0000000000000000000000000000000000034
:100CC0000000000000000000000000000000000024
:100CD0000000000000000000000000000000000014
:100CE0000000000000000000000000000000000004
:100CF00000000000000000000000000001020304EA
:0C0D0000010203040607080900000000BF
:040000050800018965
:00000001FF
